S00E000043414E4345522E737265636A
S11300000C9434000C943E000C943E000C943E007E
S11300100C943E000C943E000C943E000C943E0064
S11300200C943E000C943E000C943E000C943E0054
S11300300C943E000C943E000C943E000C943E0044
S11300400C943E000C943E000C943E000C943E0034
S11300500C943E000C943E000C943E000C943E0024
S11300600C943E000C943E0011241FBECFEFD8E048
S1130070DEBFCDBF0E9459000C9460010C940000B7
S1130080ECE7F0E090E490839081892B8083EAE7A9
S1130090F0E0808180658083808184FFFDCFEAE782
S11300A0F0E080818F7B808380917800909179004B
S11300B00895E1E6F0E080E88083108217B88FEFBE
S11300C08AB984B993EA94BD82E085BD9093B00067
S11300D08093B100EAE7F0E0808180688083109229
S11300E0C50083E38093C400E2ECF0E08081866085
S11300F08083E1ECF0E08081886080830F2EF7E755
S11301006F2EF02D03EB10E077247A94C4EBD0E04B
S11301100F2EFCE33F2EF02D0F2EFEEE4F2EF02D72
S11301200F2EF1E85F2EF02D80E090E00E94400059
S1130130BC0180E090E00E94FA004B015C0184E085
S113014090E00E944000BC0180E090E00E94FA0030
S11301506B017C018FE097E20197F1F700C000008A
S113016020E030E04AEF53E4C701B6010E945B018E
S1130170181684F420E030E04AEF53E4C501B401DA
S11301800E945B01181684F448BC17BC5882F8011D
S11301901082CACF20E030E04AEF53E4C701B60131
S11301A00E945B01181684F420E030E04AEF53E427
S11301B0C501B4010E94F500882334F438BC17BC8F
S11301C07882F8011082B0CF20E030E04AEF53E4A7
S11301D0C701B6010E94F50088230CF0A5CF67BCC7
S11301E018BCF801708218829FCF0E94370108F46E
S11301F081E00895E89409C097FB3EF490958095BA
S1130200709561957F4F8F4F9F4F9923A9F0F92FD8
S113021096E9BB279395F695879577956795B79556
S1130220F111F8CFFAF4BB0F11F460FF1BC06F5F3C
S11302307F4F8F4F9F4F16C0882311F096E911C04E
S1130240772321F09EE8872F762F05C0662371F06F
S113025096E8862F70E060E02AF09A95660F771F83
S1130260881FDAF7880F9695879597F90895990F5F
S11302700008550FAA0BE0E8FEEF16161706E8076C
S1130280F907C0F012161306E407F50798F0621B8D
S1130290730B840B950B39F40A2661F0232B242B62
S11302A0252B21F408950A2609F4A140A6958FEF81
S11302B0811D811D08950E94370108F48FEF089570
S10702C0F894FFCFDC
S9030000FC
